{
  "contractName": "VehicleRegistry",
  "abi": [
    {
      "inputs": [],
      "stateMutability": "nonpayable",
      "type": "constructor"
    },
    {
      "inputs": [],
      "name": "ContractOwner",
      "outputs": [
        {
          "internalType": "address",
          "name": "",
          "type": "address"
        }
      ],
      "stateMutability": "view",
      "type": "function",
      "constant": true
    },
    {
      "inputs": [
        {
          "internalType": "string",
          "name": "_registrationNumber",
          "type": "string"
        },
        {
          "internalType": "string",
          "name": "_date",
          "type": "string"
        },
        {
          "internalType": "string",
          "name": "_registrationValidity",
          "type": "string"
        },
        {
          "internalType": "string",
          "name": "_ownerName",
          "type": "string"
        },
        {
          "internalType": "string",
          "name": "_engineNumber",
          "type": "string"
        },
        {
          "internalType": "string",
          "name": "_chassisNumber",
          "type": "string"
        },
        {
          "internalType": "address",
          "name": "_owner",
          "type": "address"
        }
      ],
      "name": "addHeader",
      "outputs": [],
      "stateMutability": "nonpayable",
      "type": "function"
    },
    {
      "inputs": [
        {
          "internalType": "string",
          "name": "_registrationNumber",
          "type": "string"
        },
        {
          "internalType": "string",
          "name": "_fuel",
          "type": "string"
        },
        {
          "internalType": "string",
          "name": "_dateofMfgr",
          "type": "string"
        },
        {
          "internalType": "string",
          "name": "_modelName",
          "type": "string"
        },
        {
          "internalType": "string",
          "name": "_makerName",
          "type": "string"
        },
        {
          "internalType": "uint256",
          "name": "_seatingCapacity",
          "type": "uint256"
        },
        {
          "internalType": "string",
          "name": "_vehicleColor",
          "type": "string"
        },
        {
          "internalType": "string",
          "name": "_isBlackListed",
          "type": "string"
        },
        {
          "internalType": "uint256",
          "name": "_cubicCapacity",
          "type": "uint256"
        },
        {
          "internalType": "string",
          "name": "_vehicleClass",
          "type": "string"
        }
      ],
      "name": "addDetails",
      "outputs": [],
      "stateMutability": "nonpayable",
      "type": "function"
    },
    {
      "inputs": [
        {
          "internalType": "string",
          "name": "_registrationNumber",
          "type": "string"
        }
      ],
      "name": "getRcbook",
      "outputs": [
        {
          "components": [
            {
              "internalType": "string",
              "name": "registrationNumber",
              "type": "string"
            },
            {
              "internalType": "string",
              "name": "date",
              "type": "string"
            },
            {
              "internalType": "string",
              "name": "registrationValidity",
              "type": "string"
            },
            {
              "internalType": "string",
              "name": "ownerName",
              "type": "string"
            },
            {
              "internalType": "string",
              "name": "engineNumber",
              "type": "string"
            },
            {
              "internalType": "string",
              "name": "chassisNumber",
              "type": "string"
            },
            {
              "internalType": "address",
              "name": "owner",
              "type": "address"
            }
          ],
          "internalType": "struct VehicleRegistry.RcBookHeader",
          "name": "",
          "type": "tuple"
        },
        {
          "components": [
            {
              "internalType": "string",
              "name": "fuel",
              "type": "string"
            },
            {
              "internalType": "string",
              "name": "dateofMfgr",
              "type": "string"
            },
            {
              "internalType": "string",
              "name": "modelName",
              "type": "string"
            },
            {
              "internalType": "string",
              "name": "makerName",
              "type": "string"
            },
            {
              "internalType": "uint256",
              "name": "seatingCapacity",
              "type": "uint256"
            },
            {
              "internalType": "string",
              "name": "vehicleColor",
              "type": "string"
            },
            {
              "internalType": "string",
              "name": "isBlackListed",
              "type": "string"
            },
            {
              "internalType": "uint256",
              "name": "cubicCapacity",
              "type": "uint256"
            },
            {
              "internalType": "string",
              "name": "vehicleClass",
              "type": "string"
            }
          ],
          "internalType": "struct VehicleRegistry.RcBookDetails",
          "name": "",
          "type": "tuple"
        }
      ],
      "stateMutability": "view",
      "type": "function",
      "constant": true
    },
    {
      "inputs": [
        {
          "internalType": "string",
          "name": "_registrationNumber",
          "type": "string"
        },
        {
          "internalType": "address",
          "name": "newOwner",
          "type": "address"
        }
      ],
      "name": "titleChange",
      "outputs": [],
      "stateMutability": "nonpayable",
      "type": "function"
    },
    {
      "inputs": [
        {
          "internalType": "string",
          "name": "_registrationNumber",
          "type": "string"
        }
      ],
      "name": "blacklistVehicle",
      "outputs": [],
      "stateMutability": "nonpayable",
      "type": "function"
    }
  ],
  "bytecode": "0x608060405234801561001057600080fd5b5033600160006101000a81548173ffffffffffffffffffffffffffffffffffffffff021916908373ffffffffffffffffffffffffffffffffffffffff160217905550612373806100616000396000f3fe608060405234801561001057600080fd5b50600436106100625760003560e01c80635a63fbc91461006757806370a47f0314610085578063b0682a4f146100a1578063d42a65b7146100bd578063f14fe219146100ee578063ffb926311461010a575b600080fd5b61006f610126565b60405161007c9190612010565b60405180910390f35b61009f600480360381019061009a919061188a565b61014c565b005b6100bb60048036038101906100b691906116c7565b610332565b005b6100d760048036038101906100d291906116c7565b6104c3565b6040516100e592919061210b565b60405180910390f35b61010860048036038101906101039190611708565b611077565b005b610124600480360381019061011f919061175c565b61123f565b005b600160009054906101000a900473ffffffffffffffffffffffffffffffffffffffff1681565b600160009054906101000a900473ffffffffffffffffffffffffffffffffffffffff1673ffffffffffffffffffffffffffffffffffffffff163373ffffffffffffffffffffffffffffffffffffffff16146101dc576040517f08c379a00000000000000000000000000000000000000000000000000000000081526004016101d39061204b565b60405180910390fd5b60006040518061012001604052808b81526020018a81526020018981526020018881526020018781526020018681526020018581526020018481526020018381525090508060008c6040516102319190611fcd565b9081526020016040518091039020600701600082015181600001908051906020019061025e9291906114f3565b50602082015181600101908051906020019061027b9291906114f3565b5060408201518160020190805190602001906102989291906114f3565b5060608201518160030190805190602001906102b59291906114f3565b506080820151816004015560a08201518160050190805190602001906102dc9291906114f3565b5060c08201518160060190805190602001906102f99291906114f3565b5060e082015181600701556101008201518160080190805190602001906103219291906114f3565b509050505050505050505050505050565b600160009054906101000a900473ffffffffffffffffffffffffffffffffffffffff1673ffffffffffffffffffffffffffffffffffffffff163373ffffffffffffffffffffffffffffffffffffffff16146103c2576040517f08c379a00000000000000000000000000000000000000000000000000000000081526004016103b99061204b565b60405180910390fd5b3373ffffffffffffffffffffffffffffffffffffffff16600160009054906101000a900473ffffffffffffffffffffffffffffffffffffffff1673ffffffffffffffffffffffffffffffffffffffff1614610452576040517f08c379a00000000000000000000000000000000000000000000000000000000081526004016104499061206b565b60405180910390fd5b6040518060400160405280600381526020017f59455300000000000000000000000000000000000000000000000000000000008152506000826040516104989190611fcd565b908152602001604051809103902060070160060190805190602001906104bf9291906114f3565b5050565b6104cb611579565b6104d36115cc565b600073ffffffffffffffffffffffffffffffffffffffff166000846040516104fb9190611fcd565b908152602001604051809103902060000160060160009054906101000a900473ffffffffffffffffffffffffffffffffffffffff1673ffffffffffffffffffffffffffffffffffffffff161415610587576040517f08c379a000000000000000000000000000000000000000000000000000000000815260040161057e906120ab565b60405180910390fd5b600160009054906101000a900473ffffffffffffffffffffffffffffffffffffffff1673ffffffffffffffffffffffffffffffffffffffff163373ffffffffffffffffffffffffffffffffffffffff16148061065257506000836040516105ee9190611fcd565b908152602001604051809103902060000160060160009054906101000a900473ffffffffffffffffffffffffffffffffffffffff1673ffffffffffffffffffffffffffffffffffffffff163373ffffffffffffffffffffffffffffffffffffffff16145b610691576040517f08c379a0000000000000000000000000000000000000000000000000000000008152600401610688906120cb565b60405180910390fd5b60006040518060e001604052806000866040516106ae9190611fcd565b908152602001604051809103902060000160000180546106cd9061226e565b80601f01602080910402602001604051908101604052809291908181526020018280546106f99061226e565b80156107465780601f1061071b57610100808354040283529160200191610746565b820191906000526020600020905b81548152906001019060200180831161072957829003601f168201915b505050505081526020016000866040516107609190611fcd565b9081526020016040518091039020600001600101805461077f9061226e565b80601f01602080910402602001604051908101604052809291908181526020018280546107ab9061226e565b80156107f85780601f106107cd576101008083540402835291602001916107f8565b820191906000526020600020905b8154815290600101906020018083116107db57829003601f168201915b505050505081526020016000866040516108129190611fcd565b908152602001604051809103902060000160020180546108319061226e565b80601f016020809104026020016040519081016040528092919081815260200182805461085d9061226e565b80156108aa5780601f1061087f576101008083540402835291602001916108aa565b820191906000526020600020905b81548152906001019060200180831161088d57829003601f168201915b505050505081526020016000866040516108c49190611fcd565b908152602001604051809103902060000160030180546108e39061226e565b80601f016020809104026020016040519081016040528092919081815260200182805461090f9061226e565b801561095c5780601f106109315761010080835404028352916020019161095c565b820191906000526020600020905b81548152906001019060200180831161093f57829003601f168201915b505050505081526020016000866040516109769190611fcd565b908152602001604051809103902060000160040180546109959061226e565b80601f01602080910402602001604051908101604052809291908181526020018280546109c19061226e565b8015610a0e5780601f106109e357610100808354040283529160200191610a0e565b820191906000526020600020905b8154815290600101906020018083116109f157829003601f168201915b50505050508152602001600086604051610a289190611fcd565b90815260200160405180910390206000016005018054610a479061226e565b80601f0160208091040260200160405190810160405280929190818152602001828054610a739061226e565b8015610ac05780601f10610a9557610100808354040283529160200191610ac0565b820191906000526020600020905b815481529060010190602001808311610aa357829003601f168201915b50505050508152602001600086604051610ada9190611fcd565b908152602001604051809103902060000160060160009054906101000a900473ffffffffffffffffffffffffffffffffffffffff1673ffffffffffffffffffffffffffffffffffffffff1681525090506000604051806101200160405280600087604051610b489190611fcd565b90815260200160405180910390206007016000018054610b679061226e565b80601f0160208091040260200160405190810160405280929190818152602001828054610b939061226e565b8015610be05780601f10610bb557610100808354040283529160200191610be0565b820191906000526020600020905b815481529060010190602001808311610bc357829003601f168201915b50505050508152602001600087604051610bfa9190611fcd565b90815260200160405180910390206007016001018054610c199061226e565b80601f0160208091040260200160405190810160405280929190818152602001828054610c459061226e565b8015610c925780601f10610c6757610100808354040283529160200191610c92565b820191906000526020600020905b815481529060010190602001808311610c7557829003601f168201915b50505050508152602001600087604051610cac9190611fcd565b90815260200160405180910390206007016002018054610ccb9061226e565b80601f0160208091040260200160405190810160405280929190818152602001828054610cf79061226e565b8015610d445780601f10610d1957610100808354040283529160200191610d44565b820191906000526020600020905b815481529060010190602001808311610d2757829003601f168201915b50505050508152602001600087604051610d5e9190611fcd565b90815260200160405180910390206007016003018054610d7d9061226e565b80601f0160208091040260200160405190810160405280929190818152602001828054610da99061226e565b8015610df65780601f10610dcb57610100808354040283529160200191610df6565b820191906000526020600020905b815481529060010190602001808311610dd957829003601f168201915b50505050508152602001600087604051610e109190611fcd565b9081526020016040518091039020600701600401548152602001600087604051610e3a9190611fcd565b90815260200160405180910390206007016005018054610e599061226e565b80601f0160208091040260200160405190810160405280929190818152602001828054610e859061226e565b8015610ed25780601f10610ea757610100808354040283529160200191610ed2565b820191906000526020600020905b815481529060010190602001808311610eb557829003601f168201915b50505050508152602001600087604051610eec9190611fcd565b90815260200160405180910390206007016006018054610f0b9061226e565b80601f0160208091040260200160405190810160405280929190818152602001828054610f379061226e565b8015610f845780601f10610f5957610100808354040283529160200191610f84565b820191906000526020600020905b815481529060010190602001808311610f6757829003601f168201915b50505050508152602001600087604051610f9e9190611fcd565b9081526020016040518091039020600701600701548152602001600087604051610fc89190611fcd565b90815260200160405180910390206007016008018054610fe79061226e565b80601f01602080910402602001604051908101604052809291908181526020018280546110139061226e565b80156110605780601f1061103557610100808354040283529160200191611060565b820191906000526020600020905b81548152906001019060200180831161104357829003601f168201915b505050505081525090508181935093505050915091565b3373ffffffffffffffffffffffffffffffffffffffff1660008360405161109e9190611fcd565b908152602001604051809103902060000160060160009054906101000a900473ffffffffffffffffffffffffffffffffffffffff1673ffffffffffffffffffffffffffffffffffffffff1614611129576040517f08c379a00000000000000000000000000000000000000000000000000000000081526004016111209061202b565b60405180910390fd5b60405160200161113890611ffb565b6040516020818303038152906040528051906020012060008360405161115e9190611fcd565b90815260200160405180910390206007016006016040516020016111829190611fe4565b60405160208183030381529060405280519060200120146111d8576040517f08c379a00000000000000000000000000000000000000000000000000000000081526004016111cf906120eb565b60405180910390fd5b806000836040516111e99190611fcd565b908152602001604051809103902060000160060160006101000a81548173ffffffffffffffffffffffffffffffffffffffff021916908373ffffffffffffffffffffffffffffffffffffffff1602179055505050565b600160009054906101000a900473ffffffffffffffffffffffffffffffffffffffff1673ffffffffffffffffffffffffffffffffffffffff163373ffffffffffffffffffffffffffffffffffffffff16146112cf576040517f08c379a00000000000000000000000000000000000000000000000000000000081526004016112c69061204b565b60405180910390fd5b600073ffffffffffffffffffffffffffffffffffffffff166000886040516112f79190611fcd565b908152602001604051809103902060000160060160009054906101000a900473ffffffffffffffffffffffffffffffffffffffff1673ffffffffffffffffffffffffffffffffffffffff1614611382576040517f08c379a00000000000000000000000000000000000000000000000000000000081526004016113799061208b565b60405180910390fd5b60006040518060e001604052808981526020018881526020018781526020018681526020018581526020018481526020018373ffffffffffffffffffffffffffffffffffffffff168152509050806000896040516113e09190611fcd565b9081526020016040518091039020600001600082015181600001908051906020019061140d9291906114f3565b50602082015181600101908051906020019061142a9291906114f3565b5060408201518160020190805190602001906114479291906114f3565b5060608201518160030190805190602001906114649291906114f3565b5060808201518160040190805190602001906114819291906114f3565b5060a082015181600501908051906020019061149e9291906114f3565b5060c08201518160060160006101000a81548173ffffffffffffffffffffffffffffffffffffffff021916908373ffffffffffffffffffffffffffffffffffffffff1602179055509050505050505050505050565b8280546114ff9061226e565b90600052602060002090601f0160209004810192826115215760008555611568565b82601f1061153a57805160ff1916838001178555611568565b82800160010185558215611568579182015b8281111561156757825182559160200191906001019061154c565b5b5090506115759190611618565b5090565b6040518060e00160405280606081526020016060815260200160608152602001606081526020016060815260200160608152602001600073ffffffffffffffffffffffffffffffffffffffff1681525090565b6040518061012001604052806060815260200160608152602001606081526020016060815260200160008152602001606081526020016060815260200160008152602001606081525090565b5b80821115611631576000816000905550600101611619565b5090565b600061164861164384612173565b612142565b90508281526020810184848401111561166057600080fd5b61166b84828561222c565b509392505050565b6000813590506116828161230f565b92915050565b600082601f83011261169957600080fd5b81356116a9848260208601611635565b91505092915050565b6000813590506116c181612326565b92915050565b6000602082840312156116d957600080fd5b600082013567ffffffffffffffff8111156116f357600080fd5b6116ff84828501611688565b91505092915050565b6000806040838503121561171b57600080fd5b600083013567ffffffffffffffff81111561173557600080fd5b61174185828601611688565b925050602061175285828601611673565b9150509250929050565b600080600080600080600060e0888a03121561177757600080fd5b600088013567ffffffffffffffff81111561179157600080fd5b61179d8a828b01611688565b975050602088013567ffffffffffffffff8111156117ba57600080fd5b6117c68a828b01611688565b965050604088013567ffffffffffffffff8111156117e357600080fd5b6117ef8a828b01611688565b955050606088013567ffffffffffffffff81111561180c57600080fd5b6118188a828b01611688565b945050608088013567ffffffffffffffff81111561183557600080fd5b6118418a828b01611688565b93505060a088013567ffffffffffffffff81111561185e57600080fd5b61186a8a828b01611688565b92505060c061187b8a828b01611673565b91505092959891949750929550565b6000806000806000806000806000806101408b8d0312156118aa57600080fd5b60008b013567ffffffffffffffff8111156118c457600080fd5b6118d08d828e01611688565b9a505060208b013567ffffffffffffffff8111156118ed57600080fd5b6118f98d828e01611688565b99505060408b013567ffffffffffffffff81111561191657600080fd5b6119228d828e01611688565b98505060608b013567ffffffffffffffff81111561193f57600080fd5b61194b8d828e01611688565b97505060808b013567ffffffffffffffff81111561196857600080fd5b6119748d828e01611688565b96505060a06119858d828e016116b2565b95505060c08b013567ffffffffffffffff8111156119a257600080fd5b6119ae8d828e01611688565b94505060e08b013567ffffffffffffffff8111156119cb57600080fd5b6119d78d828e01611688565b9350506101006119e98d828e016116b2565b9250506101208b013567ffffffffffffffff811115611a0757600080fd5b611a138d828e01611688565b9150509295989b9194979a5092959850565b611a2e816121f0565b82525050565b611a3d816121f0565b82525050565b6000611a4e826121b8565b611a5881856121c3565b9350611a6881856020860161223b565b611a71816122fe565b840191505092915050565b6000611a87826121b8565b611a9181856121e5565b9350611aa181856020860161223b565b80840191505092915050565b60008154611aba8161226e565b611ac481866121e5565b94506001821660008114611adf5760018114611af057611b23565b60ff19831686528186019350611b23565b611af9856121a3565b60005b83811015611b1b57815481890152600182019150602081019050611afc565b838801955050505b50505092915050565b6000611b396031836121d4565b91507f4f6e6c79207468652063757272656e74206f776e65722063616e207472616e7360008301527f66657220746865206f776e6572736869700000000000000000000000000000006020830152604082019050919050565b6000611b9f6002836121e5565b91507f4e4f0000000000000000000000000000000000000000000000000000000000006000830152600282019050919050565b6000611bdf6030836121d4565b91507f4f6e6c792074686520636f6e7472616374206f776e65722063616e207065726660008301527f6f726d207468697320616374696f6e2e000000000000000000000000000000006020830152604082019050919050565b6000611c45602e836121d4565b91507f4f6e6c792074686520636f6e7472616374206f776e65722063616e207065726660008301527f6f726d2074686520616374696f6e0000000000000000000000000000000000006020830152604082019050919050565b6000611cab6038836121d4565b91507f56656869636c652077697468207468697320726567697374726174696f6e206e60008301527f756d62657220616c7265616479207265676973746572656400000000000000006020830152604082019050919050565b6000611d11602f836121d4565b91507f56656869636c652077697468207468697320726567697374726174696f6e206e60008301527f756d626572206e6f7420666f756e6400000000000000000000000000000000006020830152604082019050919050565b6000611d77600d836121d4565b91507f4163636573732064656e696564000000000000000000000000000000000000006000830152602082019050919050565b6000611db7602a836121d4565b91507f43616e6e6f74206368616e6765207469746c65206f6620626c61636b6c69737460008301527f656420524320626f6f6b000000000000000000000000000000000000000000006020830152604082019050919050565b6000610120830160008301518482036000860152611e2e8282611a43565b91505060208301518482036020860152611e488282611a43565b91505060408301518482036040860152611e628282611a43565b91505060608301518482036060860152611e7c8282611a43565b9150506080830151611e916080860182611fbe565b5060a083015184820360a0860152611ea98282611a43565b91505060c083015184820360c0860152611ec38282611a43565b91505060e0830151611ed860e0860182611fbe565b50610100830151848203610100860152611ef28282611a43565b9150508091505092915050565b600060e0830160008301518482036000860152611f1c8282611a43565b91505060208301518482036020860152611f368282611a43565b91505060408301518482036040860152611f508282611a43565b91505060608301518482036060860152611f6a8282611a43565b91505060808301518482036080860152611f848282611a43565b91505060a083015184820360a0860152611f9e8282611a43565b91505060c0830151611fb360c0860182611a25565b508091505092915050565b611fc781612222565b82525050565b6000611fd98284611a7c565b915081905092915050565b6000611ff08284611aad565b915081905092915050565b600061200682611b92565b9150819050919050565b60006020820190506120256000830184611a34565b92915050565b6000602082019050818103600083015261204481611b2c565b9050919050565b6000602082019050818103600083015261206481611bd2565b9050919050565b6000602082019050818103600083015261208481611c38565b9050919050565b600060208201905081810360008301526120a481611c9e565b9050919050565b600060208201905081810360008301526120c481611d04565b9050919050565b600060208201905081810360008301526120e481611d6a565b9050919050565b6000602082019050818103600083015261210481611daa565b9050919050565b600060408201905081810360008301526121258185611eff565b905081810360208301526121398184611e10565b90509392505050565b6000604051905081810181811067ffffffffffffffff82111715612169576121686122cf565b5b8060405250919050565b600067ffffffffffffffff82111561218e5761218d6122cf565b5b601f19601f8301169050602081019050919050565b60008190508160005260206000209050919050565b600081519050919050565b600082825260208201905092915050565b600082825260208201905092915050565b600081905092915050565b60006121fb82612202565b9050919050565b600073ffffffffffffffffffffffffffffffffffffffff82169050919050565b6000819050919050565b82818337600083830152505050565b60005b8381101561225957808201518184015260208101905061223e565b83811115612268576000848401525b50505050565b6000600282049050600182168061228657607f821691505b6020821081141561229a576122996122a0565b5b50919050565b7f4e487b7100000000000000000000000000000000000000000000000000000000600052602260045260246000fd5b7f4e487b7100000000000000000000000000000000000000000000000000000000600052604160045260246000fd5b6000601f19601f8301169050919050565b612318816121f0565b811461232357600080fd5b50565b61232f81612222565b811461233a57600080fd5b5056fea2646970667358221220a2bc32489faa9025c3a0305f8466ac2a31ff82d30136529c6aa18114dcc096a764736f6c63430008000033",
  "immutableReferences": {},
  "source": "// SPDX-License-Identifier: MIT\npragma solidity 0.8.0;\n\ncontract VehicleRegistry {\n    \n    struct RcBookHeader {\n        string registrationNumber;\n        string date;\n        string registrationValidity;\n        string ownerName;\n        string engineNumber;\n        string chassisNumber;\n        address owner;\n    }\n    struct RcBookDetails {\n        string fuel;\n        string dateofMfgr;\n        string modelName;\n        string makerName;\n        uint256 seatingCapacity;\n        string vehicleColor;\n        string isBlackListed;\n        uint256 cubicCapacity;\n        string vehicleClass;\n    }\n    struct RcBook {\n        RcBookHeader header;\n        RcBookDetails details;\n    }\n    mapping (string => RcBook) private RcBooks;\n    address public ContractOwner;\n\n    constructor() {\n        ContractOwner = msg.sender;\n    }\n\n    modifier onlyOwner() {\n        require(\n            msg.sender == ContractOwner,\n            \"Only the contract owner can perform this action.\"\n        );\n        _;\n    }\n\n    //RC book issuing functions\n    function addHeader(\n        string memory _registrationNumber,\n        string memory _date,\n        string memory _registrationValidity,\n        string memory _ownerName,\n        string memory _engineNumber,\n        string memory _chassisNumber,\n        address _owner\n    ) public onlyOwner {\n        require(RcBooks[_registrationNumber].header.owner == address(0), \"Vehicle with this registration number already registered\");\n        RcBookHeader memory NewHeader = RcBookHeader({\n            registrationNumber: _registrationNumber,\n            date: _date,\n            registrationValidity: _registrationValidity,\n            ownerName: _ownerName,\n            engineNumber: _engineNumber,\n            chassisNumber: _chassisNumber,\n            owner: _owner\n        });\n        RcBooks[_registrationNumber].header = NewHeader;\n    }\n    \n    function addDetails(\n        string memory _registrationNumber,\n        string memory _fuel,\n        string memory _dateofMfgr,\n        string memory _modelName,\n        string memory _makerName,\n        uint256 _seatingCapacity,\n        string memory _vehicleColor,\n        string memory _isBlackListed,\n        uint256 _cubicCapacity,\n        string memory _vehicleClass\n    ) public onlyOwner {\n        RcBookDetails memory NewDetails = RcBookDetails({\n            fuel: _fuel,\n            dateofMfgr: _dateofMfgr,\n            modelName: _modelName,\n            makerName: _makerName,\n            seatingCapacity: _seatingCapacity,\n            vehicleColor: _vehicleColor,\n            isBlackListed: _isBlackListed,\n            cubicCapacity: _cubicCapacity,\n            vehicleClass: _vehicleClass\n        });\n        RcBooks[_registrationNumber].details = NewDetails;\n    }\n    \n    //Getter\n    function getRcbook(string memory _registrationNumber)\n        public\n        view\n        returns (\n           RcBookHeader memory,\n           RcBookDetails memory\n        )\n    {\n        require(RcBooks[_registrationNumber].header.owner != address(0), \"Vehicle with this registration number not found\");\n        require(msg.sender == ContractOwner || msg.sender == RcBooks[_registrationNumber].header.owner, \"Access denied\");\n        RcBookHeader memory header = RcBookHeader({\n            registrationNumber: RcBooks[_registrationNumber].header.registrationNumber,\n            date: RcBooks[_registrationNumber].header.date,\n            registrationValidity: RcBooks[_registrationNumber].header.registrationValidity,\n            ownerName: RcBooks[_registrationNumber].header.ownerName,\n            engineNumber: RcBooks[_registrationNumber].header.engineNumber,\n            chassisNumber: RcBooks[_registrationNumber].header.chassisNumber,\n            owner: RcBooks[_registrationNumber].header.owner\n        });\n        RcBookDetails memory details = RcBookDetails({\n            fuel: RcBooks[_registrationNumber].details.fuel,\n            dateofMfgr: RcBooks[_registrationNumber].details.dateofMfgr,\n            modelName: RcBooks[_registrationNumber].details.modelName,\n            makerName: RcBooks[_registrationNumber].details.makerName,\n            seatingCapacity: RcBooks[_registrationNumber].details.seatingCapacity,\n            vehicleColor: RcBooks[_registrationNumber].details.vehicleColor,\n            isBlackListed: RcBooks[_registrationNumber].details.isBlackListed,\n            cubicCapacity: RcBooks[_registrationNumber].details.cubicCapacity,\n            vehicleClass: RcBooks[_registrationNumber].details.vehicleClass\n        });\n        return (\n            header,\n            details\n        );\n    }\n\n    //Title change function\n    function titleChange(string memory _registrationNumber, address newOwner) public {\n        require(RcBooks[_registrationNumber].header.owner == msg.sender, \"Only the current owner can transfer the ownership\");      \n        require(keccak256(abi.encodePacked(RcBooks[_registrationNumber].details.isBlackListed)) == keccak256(abi.encodePacked(\"NO\")), \"Cannot change title of blacklisted RC book\");\n        RcBooks[_registrationNumber].header.owner = newOwner;\n    }\n\n    //Blacklisting function\n    function blacklistVehicle(string memory _registrationNumber) public onlyOwner {\n        require(ContractOwner == msg.sender, \"Only the contract owner can perform the action\");\n        RcBooks[_registrationNumber].details.isBlackListed = \"YES\";\n    }\n\n}",
  "sourcePath": "/home/curiouskid/Gec days/Vehicle_chain/src/Contracts/VehicleRegistry.sol",
  "compiler": {
    "name": "solc",
    "version": "0.8.0+commit.c7dfd78e.Emscripten.clang"
  },
  "schemaVersion": "3.4.14",
  "updatedAt": "2023-06-22T16:39:33.067Z",
  "networkType": "ethereum",
  "devdoc": {
    "kind": "dev",
    "methods": {},
    "version": 1
  },
  "userdoc": {
    "kind": "user",
    "methods": {},
    "version": 1
  }
}